S01700005843384170706C69636174696F6E312E7372656395
S11300000C9449040C945B040C945B040C945B0402
S11300100C945B040C945B040C945B040C945B04E0
S11300200C945B040C945B040C945B040C945B04D0
S11300300C945B040C945B040C945B040C945B04C0
S11300400C945B040C945B040C945B040C945B04B0
S11300500C945B040C945B040C945B040C945B04A0
S11300600C945B040C945B04576F726C645F0048DF
S1130070656C6C6F00AEE32000B0C8001040A4A112
S1130080A681FFA83FD300D5F0D922DA12DB208D58
S113009014AF00000000000000007E8195B1B1950E
S11300A0817E7EFFEBCFCFEBFF7E0E1F3F7E3F1F97
S11300B00E00081C3E7F3E1C0800383A9FFF9F3A02
S11300C038001038BCFFBC381000000000000000ED
S11300D0000000000000000000000000000000001C
S11300E00000000000000000000070F88888FD7F18
S11300F0070F004E5FF1F15F4E00000000000000AA
S11301000000C0FF7F0505657F3F995A3CE7E73C47
S11301105A997F3E3E1C1C08080008081C1C3E3EE1
S11301207F00002466FFFF662400005F5F00005F1D
S11301305F00060F097F7F017F7FDABFA5A5FD5908
S1130140030200707070707070008094B6FFFFB688
S113015094800004067F7F0604000010307F7F3007
S113016010000808082A3E1C0800081C3E2A08083B
S113017008003C3C202020202000081C3E08083EAB
S11301801C0830383C3E3E3C3830060E1E3E3E1EB7
S11301900E06000000000000000000065F5F06007D
S11301A000000007070007070000147F7F147F7F0B
S11301B01400242E6B6B3A120000466630180C664D
S11301C06200307A4F5D377A48000407030000006C
S11301D00000001C3E63410000000041633E1C001F
S11301E00000082A3E1C1C3E2A0808083E3E080857
S11301F0000000A0E06000000000080808080808EB
S1130200000000006060000000006030180C06036D
S113021001003E7F594D7F3E000042427F7F4040B7
S11302200000627359496F660000226349497F36B2
S11302300000181C16137F7F1000276745457D3981
S113024000003C7E4B4979300000036371190F07AD
S11302500000367F49497F360000064F49693F1E3A
S1130260000000006C6C0000000000A0EC6C0000BA
S11302700000081C36634100000014141414141404
S11302800000004163361C080000020351590F06A8
S113029000003E7F415D5D1F1E007C7E13137E7C4B
S11302A00000417F7F49497F36001C3E6341416322
S11302B02200417F7F41637F1C00417F7F495D4174
S11302C06300417F7F491D0103001C3E634151735C
S11302D072007F7F08087F7F000000417F7F41001C
S11302E00000307040417F3F0100417F7F081C7750
S11302F06300417F7F41406070007F7F060C067F72
S11303007F007F7F060C187F7F001C3E6341633EA5
S11303101C00417F7F49090F06001E3F21717F5E4B
S11303200000417F7F19396F460026674D597B32A3
S1130330000003417F7F410300007F7F40407F7FB7
S113034000001F3F60603F1F00007F7F3018307F38
S11303507F0063771C081C776300074F78784F078A
S113036000006773594D47637100007F7F4141006E
S113037000000103060C183060000041417F7F003B
S11303800000080C0603060C080080808080808032
S113039080800000030704000000207454543C785B
S11303A04000413F7F44447C3800387C44446C28FE
S11303B00000307848493F7F4000387C54545C1832
S11303C00000487E7F490302000098BCA4A4F87C86
S11303D00400417F7F08047C780000447D7D400058
S11303E0000040C484FD7D000000417F7F10386C14
S11303F0440000417F7F400000007C7C0C180C7C92
S113040078007C7C04047C780000387C44447C388C
S1130410000084FCF8A4243C1800183C24A4F8FC34
S11304208400447C78441C180000485C54547424B0
S1130430000000043E7F442400003C7C40403C7C9F
S113044040001C3C60603C1C00003C7C6030607CD4
S11304503C00446C3810386C44009CBCA0A0FC7C6C
S113046000004C64745C4C64000008083E77414111
S1130470000000000077770000004141773E080843
S113048000000203010302030100787C4643467C1A
S113049078001EBFE161331200003A7A40407A7A54
S11304A04000387C56575D18000002237555557D71
S11304B07B42217554547D794000207557567C78D1
S11304C0400000227755557F7A401CBEE262361404
S11304D00000023B7D55555D1B02397D54545D1966
S11304E00000387D57565C18000001457C7C4101B2
S11304F000000203457D7D43020000457F7E4000ED
S11305000000797D26267D790000707A2D2D7A7081
S11305100000447C7E5755440000207454547C7C75
S113052054547C7E0B097F7F4900327B49497B32DE
S11305300000327A48487A32000030794B4A7830E9
S113054000003A7B41417B7A400038794342787815
S11305504000BABAA0A0FA7A0000397D4444447D30
S113056039003D7D40407D3D0000387C64544C7C26
S11305703800687E7F49436620005C3E7349673ECD
S11305801D00446C38386C44000040C888FE7F0964
S11305900B02207456577D78400000447E7F410052
S11305A000003078484A7B310000387840427B793B
S11305B040007A7B090B7A7301007A7B19337A7BCA
S11305C0010000262F292F2F280000262F29292F4C
S11305D0260030784D45602000001C227D4B5B6571
S11305E0221C0808080838380000613F1FCCEEAB15
S11305F0B990613F1F4C6673D9F8000060FAFA6045
S11306000000081C3622081C362222361C0822361A
S11306101C08AA005500AA005500AA55AA55AA55B7
S1130620AA5555FFAAFF55FFAAFF000000FFFF00CF
S11306300000101010FFFF00000070782C2E7B715A
S1130640000072792D2D79720000717B2E2C787048
S113065000001C225D555541221C1414F7F700FFBD
S1130660FF000000FFFF00FFFF001414F4F404FC7B
S1130670FC0014141717101F1F00183C24E7E7246C
S113068024002B2FFCFC2F2B0000101010F0F00086
S113069000000000001F1F1010101010101F1F106A
S11306A01010101010F0F0101010000000FFFF10D8
S11306B010101010101010101010101010FFFF1058
S11306C01010227755577E7B4100727B2D2F7A7351
S11306D0010000001F1F101717140000FCFC04F495
S11306E0F41414141717101717141414F4F404F44E
S11306F0F4140000FFFF00F7F71414141414141476
S113070014141414F7F700F7F714663C3C243C3C2B
S11307106600052772577D380000497F7F49637F53
S11307201C00467D7D5555460000457D7C5455454D
S11307300000447D7F56544400000A0E0800000067
S1130740000000447E7F4500000002457D7D450297
S1130750000001457C7C450100001010101F1F00A3
S11307600000000000F0F0101010FFFFFFFFFFFF7B
S1130770FFFFF0F0F0F0F0F0F0F000000077770009
S1130780000000457F7E440000000F0F0F0F0F0F85
S11307900F0F387C4647457C3800FCFE2A2A3E145D
S11307A000003A7D4545457D3A00387C4547467C06
S11307B03800327B494B7A3301003A7F4547467F04
S11307C0390080FE7E20203E1E00427E7E541C089E
S11307D00000417F7F55141C08003C7C42437D3C53
S11307E000003A794141793A00003C7D43427C3C27
S11307F00000B8B8A2A3F97800000C5C72735D0C19
S113080000000202020202020000000002030100D2
S11308100000101010101010000044445F5F4444A6
S11308200000282828282828000071351F4C6673EA
S1130830D9F8060F097F7F017F7FDABFA5A5FD598F
S1130840030208086B6B080800000080C040000029
S1130850000000060F090F06000002020000020259
S1130860000000000010100000000012131F1F10F1
S11308701000001115151F1F0A0000191D1517126D
S1130880000000003C3C3C3C000000000000000074
S1130890000011241FBECFEFD8E0DEBFCDBF21E0A2
S11308A0A0E0B1E001C01D92A330B207E1F70E94BD
S11308B082040C94B6070C94000084B5836084BD54
S11308C084B5806C84BD85B5856085BD17BC0895ED
S11308D084B5806384BD18BC0895A0E8B0E08C9111
S11308E081608C93E1E8F0E08081886080838C9162
S11308F0806C8C9380818560808310928900109233
S1130900880008958AB180628AB98AB180648AB9FC
S113091084B1826084B90E945D040E9468040E94CC
S11309206D040E94650582E00E947F0561E080E01D
S11309300E9424058FE690E09F938F930E946506A2
S113094066E080E00E94240588E690E09F938F9300
S11309500E946506789417BC8FEF88BD86E190E00D
S113096090938900809388000F900F900F900F90C0
S11309708BB180628BB92FEF89E698E121508040DA
S11309809040E1F700C000008BB18F7D8BB92FEF51
S113099089E698E1215080409040E1F700C00000D2
S11309A0E7CF88B1806388B91092BC001092B90077
S11309B08CE08093B8002FEF80E792E021508040D4
S11309C09040E1F700C00000089584EA8093BC00E1
S11309D080E005C091E0980F8536C0F4892F90918E
S11309E0BC009923BCF788E78093BB0084E880931C
S11309F0BC0080E005C091E0980F853648F4892F4B
S1130A009091BC009923BCF780E0089581E008959B
S1130A1081E008958093BB0084E88093BC0080E06B
S1130A2005C091E0980F853638F4892F9091BC0069
S1130A309923BCF780E0089581E00895ECEBF0E0A1
S1130A4084E9808310820895CF93DF93C82FD62F33
S1130A5080930201609301010E94E50480E00E94FA
S1130A600A058D2F806B0E940A0581E20E940A0507
S1130A708C2F880F880F880F0E940A058FE70E9429
S1130A800A050E941E05DF91CF910895CF93DF934D
S1130A9060E080E00E9424050E94E50480E40E9456
S1130AA00A05C0E0D0E004C080E00E940A05219657
S1130AB0C11588E0D807C0F30E941E0560E080E0FD
S1130AC00E942405DF91CF910895CF930E94D10411
S1130AD00E94E50480E00E940A05C0E008C0EC2FF3
S1130AE0F0E0EB58FF4F84910E940A05CF5FCD31AF
S1130AF0B0F30E941E050E944605CF91089580938D
S1130B0000010895DF92EF92FF920F931F93CF930A
S1130B10DF93082F80910001882309F49BC0609122
S1130B200101809102010E9424050E94E50480E4F1
S1130B300E940A0510E035C0E02FF0E0EE0FFF1F21
S1130B40EE0FFF1FEE0FFF1FE10FF11DEE56FF4FDB
S1130B50849180FBEE24E0F8F12CE82FE270F0E0C1
S1130B60EE0FFF1FEE0DFF1D282F247030E0220F23
S1130B70331F220F331FE20FF31F887090E0880F9A
S1130B80991F880F991F880F991FE80FF91FDE2EF0
S1130B90DD0CDE0E8D2D0E940A058D2D0E940A05A6
S1130BA01F5F183048F20E941E05609101016F5FBB
S1130BB0809102010E9424050E94E50480E40E94C1
S1130BC00A0510E038C0E02FF0E0EE0FFF1FEE0F33
S1130BD0FF1FEE0FFF1FE10FF11DEE56FF4F249193
S1130BE022952F70822F8170C82F80E0D82F822FFA
S1130BF0827090E0880F991F8C0F9D1F422F4470C4
S1130C0050E0440F551F440F551F840F951F287043
S1130C1030E0220F331F220F331F220F331F820FA6
S1130C20931FF82EFF0CF80E8F2D0E940A058F2DAE
S1130C300E940A051F5F183030F20E941E05809141
S1130C4002018E5F809302018091010181508093A3
S1130C50010126C060910101809102010E942405D6
S1130C600E94E50480E40E940A05C0E010C0E02F61
S1130C70F0E0EE0FFF1FEE0FFF1FEE0FFF1FEC0F54
S1130C80F11DEE56FF4F84910E940A05CF5FC830D4
S1130C9070F30E941E05809102018F5F8093020110
S1130CA0DF91CF911F910F91FF90EF90DF90089506
S1130CB0CF93DF93EC0103C021960E9482058881C3
S1130CC08111FACFDF91CF9108958F929F92AF92C5
S1130CD0BF92DF92EF92FF920F931F93CF93DF9314
S1130CE0CDB7DEB764970FB6F894DEBF0FBECDBFA5
S1130CF0FE01B296019111915F01D12C78018FEF21
S1130D00E81AF80AF8018491882309F4A5C0853209
S1130D1009F09EC04801F2E08F0E911CF701849106
S1130D20282F30E0205331092A30310560F48B87B5
S1130D301C86CE010B960E943E07D82E0D5F1F4FD6
S1130D40F401849101C08401893681F128F482364A
S1130D5051F08336E9F0D2CF833739F0883721F167
S1130D608F3661F61FC042E022C04501F2E08F0ECB
S1130D70911CF501E080F18005C0FFEFEF1AFF0A36
S1130D800E948205F70180818111F7CF5401B6CF0B
S1130D907501F2E0EF0EF11CF50180810E948205DD
S1130DA05701ACCF48E003C040E101C04AE050E045
S1130DB07501F2E0EF0EF11CBE016F5F7F4FF5018C
S1130DC0808191810E946E0780E090E001C0CA0199
S1130DD0AC014F5F5F4FE1E0F0E0EC0FFD1FE80F67
S1130DE0F91F20812111F3CF2D2D30E082179307B5
S1130DF044F5D81A20E030E00AC0EBE0F0E0EC0F54
S1130E00FD1FE20FF31F80E380832F5F3F4F8D2D83
S1130E1090E0281739078CF3EBE0F0E0EC0FFD1FAE
S1130E20E20FF31F1082BE016F5F7F4FCE010B965E
S1130E300E945C07BE01655F7F4FCE0101960E9450
S1130E406707CE0101960E9458065701D12C56CF50
S1130E500E948205870152CF64960FB6F894DEBFD4
S1130E600FBECDBFDF91CF911F910F91FF90EF90F7
S1130E70DF90BF90AF909F908F900895FC018827DA
S1130E809927E89421912032E9F3293010F02E308B
S1130E90C8F32B3241F02D3239F4689404C00E9417
S1130EA08407820F911D219120532A30C0F31EF430
S1130EB0909581959F4F0895FB01DC010D900020D2
S1130EC0E9F7119701900D920020E1F70895FB01D5
S1130ED0DC0101900D920020E1F70895453251059F
S1130EE020F4423010F00C947907FB011082CB01FE
S1130EF00895BB274A3031F4992322F4BDE290953A
S1130F0081959F4F0C948D077AE0979F902D879F32
S1130F10802D910D11240895BB27FB015527AA2785
S1130F20880F991FAA1FA41710F0A41B8395505172
S1130F30B9F7A05DAA3308F0A95DA193009779F7EA
S1130F40B111B1931192CB010C94A607DC01FC0101
S1130F50672F71917723E1F7329704C07C916D93E9
S1130F6070836291AE17BF07C8F30895F894FFCF5A
S9030000FC
