:100000000C9448040C945A040C945A040C945A040A
:100010000C945A040C945A040C945A040C946F04D3
:100020000C945A040C945A040C945A040C945A04D8
:100030000C945A040C945A040C945A040C945A04C8
:100040000C945A040C945A040C945A040C945A04B8
:100050000C945A040C945A040C945A040C945A04A8
:100060000C945A040C945A042533690048616C6C52
:100070006F00AEE32000B0C8001040A4A1A681FF2D
:10008000A83FD300D5F0D922DA12DB208D14AF00BF
:10009000000000000000007E8195B1B195817E7E58
:1000A000FFEBCFCFEBFF7E0E1F3F7E3F1F0E000802
:1000B0001C3E7F3E1C0800383A9FFF9F3A380010D4
:1000C00038BCFFBC38100000000000000000000039
:1000D0000000000000000000000000000000000020
:1000E0000000000000000070F88888FD7F070F0006
:1000F0004E5FF1F15F4E000000000000000000C004
:10010000FF7F0505657F3F995A3CE7E73C5A997F99
:100110003E3E1C1C08080008081C1C3E3E7F0000D8
:100120002466FFFF662400005F5F00005F5F00063B
:100130000F097F7F017F7FDABFA5A5FD590302006C
:10014000707070707070008094B6FFFFB69480007D
:1001500004067F7F0604000010307F7F3010000807
:1001600008082A3E1C0800081C3E2A080808003C13
:100170003C202020202000081C3E08083E1C08309F
:10018000383C3E3E3C3830060E1E3E3E1E0E0600FB
:100190000000000000000000065F5F060000000095
:1001A00007070007070000147F7F147F7F140024D7
:1001B0002E6B6B3A120000466630180C66620030F7
:1001C0007A4F5D377A480004070300000000000002
:1001D0001C3E63410000000041633E1C000000081B
:1001E0002A3E1C1C3E2A0808083E3E080800000063
:1001F000A0E06000000000080808080808000000EF
:10020000006060000000006030180C060301003E32
:100210007F594D7F3E000042427F7F404000006298
:100220007359496F660000226349497F3600001800
:100230001C16137F7F1000276745457D3900003C61
:100240007E4B4979300000036371190F07000036B7
:100250007F49497F360000064F49693F1E00000074
:10026000006C6C0000000000A0EC6C0000000008B6
:100270001C36634100000014141414141400000010
:100280004163361C080000020351590F0600003E6E
:100290007F415D5D1F1E007C7E13137E7C0000414C
:1002A0007F7F49497F36001C3E6341416322004104
:1002B0007F7F41637F1C00417F7F495D4163004137
:1002C0007F7F491D0103001C3E6341517372007F13
:1002D0007F08087F7F000000417F7F4100000030E1
:1002E0007040417F3F0100417F7F081C77630041E0
:1002F0007F7F41406070007F7F060C067F7F007F1C
:100300007F060C187F7F001C3E6341633E1C00414A
:100310007F7F49090F06001E3F21717F5E0000416B
:100320007F7F19396F460026674D597B32000003E5
:10033000417F7F410300007F7F40407F7F00001F9F
:100340003F60603F1F00007F7F3018307F7F006379
:10035000771C081C776300074F78784F0700006709
:1003600073594D47637100007F7F414100000001D8
:1003700003060C183060000041417F7F0000000838
:100380000C0603060C08008080808080808080003E
:1003900000030704000000207454543C78400041DE
:1003A0003F7F44447C3800387C44446C2800003053
:1003B0007848493F7F4000387C54545C180000481E
:1003C0007E7F490302000098BCA4A4F87C0400418D
:1003D0007F7F08047C780000447D7D400000004061
:1003E000C484FD7D000000417F7F10386C44000014
:1003F000417F7F400000007C7C0C180C7C78007CE6
:100400007C04047C780000387C44447C3800008400
:10041000FCF8A4243C1800183C24A4F8FC840044F4
:100420007C78441C180000485C545474240000007C
:10043000043E7F442400003C7C40403C7C40001C47
:100440003C60603C1C00003C7C6030607C3C0044B4
:100450006C3810386C44009CBCA0A0FC7C00004CA4
:1004600064745C4C64000008083E77414100000061
:10047000000077770000004141773E080800000245
:1004800003010302030100787C4643467C78001E8A
:10049000BFE161331200003A7A40407A7A40003876
:1004A0007C56575D18000002237555557D7B42210F
:1004B0007554547D794000207557567C7840000073
:1004C000227755557F7A401CBEE262361400000246
:1004D0003B7D55555D1B02397D54545D1900003834
:1004E0007D57565C18000001457C7C4101000002EC
:1004F00003457D7D43020000457F7E40000000797A
:100500007D26267D790000707A2D2D7A70000044BA
:100510007C7E5755440000207454547C7C54547C99
:100520007E0B097F7F4900327B49497B32000032D4
:100530007A48487A32000030794B4A783000003AE5
:100540007B41417B7A40003879434278784000BA59
:10055000BAA0A0FA7A0000397D4444447D39003DB8
:100560007D40407D3D0000387C64544C7C38006800
:100570007E7F49436620005C3E7349673E1D004410
:100580006C38386C44000040C888FE7F090B02209C
:100590007456577D78400000447E7F410000003053
:1005A00078484A7B310000387840427B7940007AB5
:1005B0007B090B7A7301007A7B19337A7B01000087
:1005C000262F292F2F280000262F29292F260030FB
:1005D000784D45602000001C227D4B5B65221C0885
:1005E00008080838380000613F1FCCEEABB99061B5
:1005F0003F1F4C6673D9F8000060FAFA60000008EB
:100600001C3622081C362222361C0822361C08AA58
:10061000005500AA005500AA55AA55AA55AA555535
:10062000FFAAFF55FFAAFF000000FFFF0000001017
:100630001010FFFF00000070782C2E7B71000072FC
:10064000792D2D79720000717B2E2C787000001CA2
:10065000225D555541221C1414F7F700FFFF0000DE
:1006600000FFFF00FFFF001414F4F404FCFC00146E
:10067000141717101F1F00183C24E7E72424002B31
:100680002FFCFC2F2B0000101010F0F000000000D9
:1006900000001F1F1010101010101F1F101010103E
:1006A0001010F0F0101010000000FFFF10101010DC
:1006B00010101010101010101010FFFF101010224A
:1006C0007755577E7B4100727B2D2F7A7301000096
:1006D000001F1F101717140000FCFC04F4F414147E
:1006E000141717101717141414F4F404F4F4140066
:1006F00000FFFF00F7F71414141414141414141446
:1007000014F7F700F7F714663C3C243C3C66000500
:100710002772577D380000497F7F49637F1C004660
:100720007D7D5555460000457D7C5455450000446F
:100730007D7F56544400000A0E08000000000000AF
:10074000447E7F4500000002457D7D45020000019A
:10075000457C7C450100001010101F1F00000000A8
:100760000000F0F0101010FFFFFFFFFFFFFFFFF091
:10077000F0F0F0F0F0F0F0000000777700000000FB
:10078000457F7E440000000F0F0F0F0F0F0F0F3833
:100790007C4647457C3800FCFE2A2A3E1400003A7D
:1007A0007D4545457D3A00387C4547467C380032DA
:1007B0007B494B7A3301003A7F4547467F390080B9
:1007C000FE7E20203E1E00427E7E541C080000411A
:1007D0007F7F55141C08003C7C42437D3C00003A5E
:1007E000794141793A00003C7D43427C3C0000B8AD
:1007F000B8A2A3F97800000C5C72735D0C000002D3
:1008000002020202020000000002030100000010C8
:100810001010101010000044445F5F444400002892
:100820002828282828000071351F4C6673D9F8063F
:100830000F097F7F017F7FDABFA5A5FD590302085D
:10084000086B6B080800000080C04000000000003A
:10085000060F090F0600000202000002020000005D
:10086000000010100000000012131F1F10100000E5
:100870001115151F1F0A0000191D15171200000081
:10088000003C3C3C3C000000000000000000000078
:1008900011241FBECFEFD8E0DEBFCDBF21E0A0E026
:1008A000B1E001C01D92A530B207E1F70E948604B5
:1008B0000C9492070C940000E0EBF0E080818260E1
:1008C0008083E1EBF0E0808184608083E0E7F0E00A
:1008D0008081826080838AEF8093B30008951F92A5
:1008E0000F920FB60F9211248F939F938091000166
:1008F00090910101019690930101809300019F91D5
:100900008F910F900FBE0F901F9018950E94440575
:100910000E945C048CE690E09F938F930E944106B6
:1009200078940F900F908091000190910101883E82
:10093000934024F0109201011092000160E080E0E9
:100940000E94030580910001909101019F938F9374
:1009500088E690E09F938F930E9441060F900F903E
:100960000F900F90E0CF88B1806388B91092BC00DF
:100970001092B90089EF8093B80083ED90E301975E
:10098000F1F700C00000089584EA8093BC0080E085
:1009900005C091E0980F8536C0F4892F9091BC0076
:1009A0009923BCF788E78093BB0084E88093BC0060
:1009B00080E005C091E0980F853648F4892F90912A
:1009C000BC009923BCF780E0089581E0089581E0A0
:1009D00008958093BB0084E88093BC0080E005C04C
:1009E00091E0980F853638F4892F9091BC009923B7
:1009F000BCF780E0089581E00895ECEBF0E084E935
:100A0000808310820895CF93DF93C82FD62F8093D1
:100A10000401609303010E94C40480E00E94E90481
:100A20008D2F806B0E94E90481E20E94E9048C2FE3
:100A3000880F880F880F0E94E9048FE70E94E9045D
:100A40000E94FD04DF91CF910895CF93DF9360E082
:100A500080E00E9403050E94C40480E40E94E9042F
:100A6000C0E0D0E004C080E00E94E9042196C115F6
:100A700088E0D807C0F30E94FD0460E080E00E9497
:100A80000305DF91CF910895CF930E94B3040E9494
:100A9000C40480E00E94E904C0E008C0EC2FF0E04C
:100AA000EE58FF4F84910E94E904CF5FCD31B0F33F
:100AB0000E94FD040E942505CF910895DF92EF92D8
:100AC000FF920F931F93CF93DF93082F8091020122
:100AD000882309F49BC060910301809104010E9466
:100AE00003050E94C40480E40E94E90410E035C0BC
:100AF000E02FF0E0EE0FFF1FEE0FFF1FEE0FFF1FC6
:100B0000E10FF11DE157FF4F849180FBEE24E0F8E7
:100B1000F12CE82FE270F0E0EE0FFF1FEE0DFF1D4D
:100B2000282F247030E0220F331F220F331FE20FD3
:100B3000F31F887090E0880F991F880F991F880F06
:100B4000991FE80FF91FDE2EDD0CDE0E8D2D0E94A1
:100B5000E9048D2D0E94E9041F5F183048F20E94BD
:100B6000FD04609103016F5F809104010E94030501
:100B70000E94C40480E40E94E90410E038C0E02F21
:100B8000F0E0EE0FFF1FEE0FFF1FEE0FFF1FE10F54
:100B9000F11DE157FF4F249122952F70822F817014
:100BA000C82F80E0D82F822F827090E0880F991F85
:100BB0008C0F9D1F422F447050E0440F551F440F6F
:100BC000551F840F951F287030E0220F331F220F0E
:100BD000331F220F331F820F931FF82EFF0CF80EC6
:100BE0008F2D0E94E9048F2D0E94E9041F5F1830A9
:100BF00030F20E94FD04809104018E5F8093040115
:100C00008091030181508093030126C0609103010C
:100C1000809104010E9403050E94C40480E40E94A4
:100C2000E904C0E010C0E02FF0E0EE0FFF1FEE0F70
:100C3000FF1FEE0FFF1FEC0FF11DE157FF4F8491D7
:100C40000E94E904CF5FC83070F30E94FD048091D8
:100C500004018F5F80930401DF91CF911F910F9169
:100C6000FF90EF90DF900895CF93DF93EC0103C0E6
:100C700021960E945E0588818111FACFDF91CF9184
:100C800008958F929F92AF92BF92DF92EF92FF9260
:100C90000F931F93CF93DF93CDB7DEB764970FB653
:100CA000F894DEBF0FBECDBFFE01B2960191119147
:100CB0005F01D12C78018FEFE81AF80AF8018491CE
:100CC000882309F4A5C0853209F09EC04801F2E0EE
:100CD0008F0E911CF7018491282F30E020533109A9
:100CE0002A30310560F48B871C86CE010B960E945A
:100CF0001A07D82E0D5F1F4FF401849101C08401A3
:100D0000893681F128F4823651F08336E9F0D2CF6A
:100D1000833739F0883721F18F3661F61FC042E002
:100D200022C04501F2E08F0E911CF501E080F180B8
:100D300005C0FFEFEF1AFF0A0E945E05F7018081F0
:100D40008111F7CF5401B6CF7501F2E0EF0EF11C1F
:100D5000F50180810E945E055701ACCF48E003C0D9
:100D600040E101C04AE050E07501F2E0EF0EF11CF5
:100D7000BE016F5F7F4FF501808191810E944A071C
:100D800080E090E001C0CA01AC014F5F5F4FE1E03D
:100D9000F0E0EC0FFD1FE80FF91F20812111F3CFC8
:100DA0002D2D30E08217930744F5D81A20E030E06B
:100DB0000AC0EBE0F0E0EC0FFD1FE20FF31F80E351
:100DC00080832F5F3F4F8D2D90E0281739078CF3DC
:100DD000EBE0F0E0EC0FFD1FE20FF31F1082BE010D
:100DE0006F5F7F4FCE010B960E943807BE01655F93
:100DF0007F4FCE0101960E944307CE0101960E94CB
:100E000034065701D12C56CF0E945E05870152CF80
:100E100064960FB6F894DEBF0FBECDBFDF91CF91C1
:100E20001F910F91FF90EF90DF90BF90AF909F9038
:100E30008F900895FC0188279927E894219120320A
:100E4000E9F3293010F02E30C8F32B3241F02D3267
:100E500039F4689404C00E946007820F911D2191AB
:100E600020532A30C0F31EF4909581959F4F08952A
:100E7000FB01DC010D900020E9F7119701900D9224
:100E80000020E1F70895FB01DC0101900D920020A4
:100E9000E1F708954532510520F4423010F00C94EA
:100EA0005507FB011082CB010895BB274A3031F46E
:100EB000992322F4BDE2909581959F4F0C94690788
:100EC0007AE0979F902D879F802D910D1124089592
:100ED000BB27FB015527AA27880F991FAA1FA41714
:100EE00010F0A41B83955051B9F7A05DAA3308F008
:100EF000A95DA193009779F7B111B1931192CB013C
:100F00000C948207DC01FC01672F71917723E1F7D4
:100F1000329704C07C916D9370836291AE17BF07C6
:080F2000C8F30895F894FFCF17
:00000001FF
